:020000040800F2
:10000000606A0020F92E0008012F0008032F000865
:10001000052F0008072F0008092F00080000000026
:100020000000000000000000000000000B2F00088E
:100030000D2F00080000000023FF0108995600085A
:10004000090A0008470A0008490A00084B0A000884
:100050004D0A00084F0A0008510A0008530A000818
:10006000550A0008570A0008590A0008132F00080B
:10007000132F0008132F0008132F0008132F000858
:10008000132F0008132F0008132F0008132F000848
:10009000132F0008132F0008132F0008730A0008FD
:1000A000330B0008350B0008370B0008390B00082C
:1000B0003B0B00083D0B00083F0B0008410B0008FC
:1000C000430B0008450B0008470B0008490B0008CC
:1000D0004B0B00084D0B0008ED0B0008730C0008DB
:1000E000190D00081B0D00081D0D00081F0D00084C
:1000F000210D0008230D0008250D0008270D00081C
:10010000290D00082B0D00082D0D00082F0D0008EB
:10011000310D0008330D0008B90D0008BB0D0008B3
:10012000BD0D0008BF0D0008C10D0008C30D00087B
:1001300000F002F800F073F80AA090E8000C824486
:100140008344AAF10107DA4501D100F068F8AFF263
:10015000090EBAE80F0013F0010F18BFFB1A43F0A5
:1001600001031847A86B0300C86B03000A444FF053
:10017000000C10F8013B13F0070408BF10F8014B06
:100180001D1108BF10F8015B641E05D010F8016B4B
:10019000641E01F8016BF9D113F0080F1EBF10F8AF
:1001A000014BAD1C0C1B09D16D1E58BF01F801CBD2
:1001B000FAD505E014F8016B01F8016B6D1EF9D555
:1001C0009142D6D37047000000230024002500266A
:1001D000103A28BF78C1FBD8520728BF30C148BFAA
:1001E0000B607047662924F0D28264291FF09C8737
:1001F000732920F0DA84002070471FB520F02CFA14
:1002000004000020002123F097F8401C60600020CB
:10021000002123F0A7F8E0601FBD10B510BD20F04D
:1002200019FF1146FFF7E9FF00F08BFB21F098F969
:1002300003B4FFF7F2FF03BC06F0F6FC80F3088876
:10024000704700000021002200BF07E0002200E00C
:10025000521C44F620639A42FADB491C8142F5DBCA
:10026000704770477047704710B5FE48006820F42B
:10027000800000F58000FB49086008460068C0F374
:100280004060A0B9F848007802280BDB0020F6494E
:100290000870F448006820F0007000F10070F14927
:1002A000086004E0F0480078401CEF490870ED4811
:1002B0000068C0F3C040A0B9EC48007802280BDB0E
:1002C0000020EA490870E748006820F4002000F5A3
:1002D0000020E449086004E0E4480078401CE34959
:1002E0000870E3480068401CE1490860084600685F
:1002F000E04988420BD30020DD49086048608860EF
:10030000C860086148618861C86108624862DA486B
:100310000078C043D84908700846007820B1802191
:10032000D64803F0E0FC03E08021D44803F0DDFC74
:100330000DF0ADFE48B1D248D0F8600320F00100C6
:10034000401CCF49C1F8600307E0CD48D0F86003F6
:1003500020F00100CA49C1F86003C948D0F8600321
:1003600000F00100D0B9C448007858B1C548007801
:1003700040F00200C349087008460178C02009F027
:10038000C3F916E0BF48007800F0FD00BD490870D1
:1003900008460178C02009F0B7F90AE0B9480078AA
:1003A00040F00200B749087008460178C02009F003
:1003B000ABF9B348D0F86003C0F3C010C001B04936
:1003C000D1F86013C1F3801140EA8110AC49D1F833
:1003D0006013C1F3401140EA4110A949D1F86013FC
:1003E000C1F3001140EA0110A549D1F86013C1F32F
:1003F000C00140EAC100A249D1F86013C1F38001F5
:1004000040EA8100A04908700846007810B99F486A
:10041000407858B99B48007840F00400994908702A
:1004200008460178C02009F06FF90AE09548007885
:1004300000F0FB009349087008460178C02009F0DD
:1004400063F99248407801280BD18E48007840F03B
:1004500008008C49087008460178C02009F054F95A
:100460000AE08848007800F0F700864908700846DE
:100470000178C02009F048F9814890F890000128DF
:1004800004D12021824803F02EFC03E02021804883
:1004900003F02BFC7A4890F89000012804D1202129
:1004A0007B4803F020FC03E02021794803F01DFC89
:1004B0007348D0F86003C0F3801020B11021744855
:1004C00003F011FC03E01021714803F00EFC6C48AE
:1004D000D0F86003C0F3801020B110216C4803F005
:1004E00002FC03E010216A4803F0FFFB6448D0F8E7
:1004F0006003C0F3C00020B10821654803F0F3FB9E
:1005000003E00821624803F0F0FB5D48D0F8600387
:10051000C0F3401020B104215D4803F0E4FB16E075
:100520005748D0F86003C0F3C01060B1524800785B
:1005300020B10421564803F0D6FB08E004215448BA
:1005400003F0D3FB03E00421514803F0CEFB10BDC0
:10055000704700BF0DF0A5FD68B120214C4803F0A5
:10056000C2FB00230122194618461FF00DFC202172
:10057000474803F0BAFB01200DF07AFD38E005F0A2
:1005800013FE05F0F4FE43480068401C4149086032
:1005900008460068142823DD002008601FF09AFC3C
:1005A00081460FF0BBF8044648461FF097FCACB1FB
:1005B00014F5AF7F12DD40F2DE3084420EDA2046C1
:1005C00023F0C5F907460022334B22F0CFFF054642
:1005D00022F0DEFE2A49C1F8780300BF0DF0B2FD1B
:1005E0000DF028FE46230022114610461FF0CCFBDA
:1005F000C5E70EB5002000900190029000BF0120D9
:100600002649087076E0684609F0B2F89DF80000C7
:10061000802816D100BF684609F0AAF814230022EA
:10062000114610461FF0B0FB9DF800008028F2D064
:100630000C48006820F4000000F50000094908603B
:1006400038E09DF80000102834D100BF684609F05A
:100650008FF814230022114610461FF095FB9DF8D9
:1006600000001DE0080000205F0000205E00002068
:10067000EC0E0020A02526005C000020000C0140AC
:10068000380900202A000020180000201600002051
:10069000001801405800002000002440ED00002018
:1006A0001028D3D0BB48006820F0807000F1807023
:1006B000B84908609DF80000A0B99DF80100102815
:1006C00010D100BF684609F053F8142300221146E8
:1006D00010461FF059FB9DF801001028F2D00420AD
:1006E000AD49087006F08AFD3223002211461046FB
:1006F0001FF04AFB87E786B001201EF078FDA7496E
:10070000086001201EF073FDA549086001201EF05D
:100710006EFDA449086002F0ADFA0320002140F20A
:10072000DC52A14BCDE90132CDE903100A2003468A
:100730009E4A00909E481FF004F8032000214FF4C9
:1007400096729C4BCDE90132CDE903100C20034693
:10075000994A009099481EF0F4FF03200021C82216
:10076000974BCDE90132CDE903100B200346954AA2
:10077000009095481EF0E5FF03200021C822934B0E
:10078000CDE90132CDE903100D200346904A0090D7
:10079000AFF2A1101EF0D5FF03200021C8228D4B1F
:1007A000CDE90132CDE903100E2003468A4A0090BC
:1007B000AFF261201EF0C5FFC2E004F0D8FB75481F
:1007C0000068C0F34000E8B17248006820F0020001
:1007D00070490860FFF7BCFE8048007E90B17F48FA
:1007E000408B401C81B27D484183418BC06981426E
:1007F00008D30020794908760021784841830121F7
:1008000080F8201063480068C0F38000002855D0AD
:100810006048006820F004005E49086008460068EF
:1008200020F4004000F5004008606D4800780F2873
:1008300004DA6B480078401C69490870002430E0F5
:1008400004EB4400654911F8200040B304EB440078
:1008500001EB80004088401C04EB44015F4A02EB3E
:100860008101488004EB4400114601EB8000408880
:1008700004EB440102EB8101496888420FD3002058
:1008800004EB440102F8210004EB440102EB810176
:100890004880012004EB440102EB81010872601CD6
:1008A000C4B2022CCCDB4F480078002804DD4D4850
:1008B0000078401E4B490870FFF7D6FC35480068A9
:1008C000C0F3C00070B13348006820F0080031491F
:1008D00008600846006820F4803000F58030086029
:1008E000FFF7C1FC2B480068C0F3001070B1294825
:1008F000006820F01000274908600846006820F4CE
:10090000003000F500300860FFF7ACFC21480068BB
:10091000C0F3401070B11F48006820F020001D494E
:1009200008600846006820F4804000F580400860B8
:10093000FFF797FC0F230022114610461FF024FA00
:100940003BE710B504F085FF4FF49670FFF77AFC93
:100950001DF025F902F03AF80F23234A002123481D
:100960001EF098FE1DF03AFA002010BD70B5044646
:1009700000BF1DF04BFA1FF0ADFA0546FF201FF037
:1009800009F928461FF0AAFA70BD704770477047F2
:100990007047000008000020ED0000203800002013
:1009A0003C00002040000020F82100206439002095
:1009B0008B32010868390020143E002051180008CD
:1009C000183E002034410020CF1B0008584400206E
:1009D000744700203841002054440020BC4F0020C0
:1009E0008B03002090030020F4210020F70600086C
:1009F000704700BFFEE700BFFEE700BFFEE700BF95
:100A0000FEE770477047704710B51FF063FA044661
:100A1000EC480078401CEB49087020461FF05EFA55
:100A2000E948006800F0010040B17F2004F0DFFADF
:100A3000E548006820F00100E349086004F0E8FAA6
:100A40001DF0E0F810BD7047704770477047704761
:100A500070477047704770477047704770477047DE
:100A600070477047704770477047704770477047CE
:100A7000704710B51DF0ABF804F079FA4FF48070B0
:100A800003F04CFD90B1D048006820F4805000F590
:100A90008050CD4908604FF4807003F050FD01E0B4
:100AA00005F073FAC94800680028F9D0402003F027
:100AB00035FD00283AD0C648007898B94021C5488D
:100AC00003F0F7F870B90020C34908708021C148CD
:100AD00003F0EFF810B10120BF4908700120BC49B4
:100AE000087020E0BA480078E8B14021B94803F026
:100AF000E0F8C0B18021B74803F0DBF828B9B64868
:100B00000078012801D1B54908708021B14803F06F
:100B1000D0F828B1B048007810B90120B049087069
:100B20000020AB490870402003F009FD1DF06AF871
:100B300010BD7047704770477047704770477047E7
:100B400070477047704770477047704710B51FF087
:100B5000C1F904469B480078401C9A490870204619
:100B60001FF0BCF940F224419E4802F06BFF0028C0
:100B700039D09C4802F0E6FE00219B4804F021FD9C
:100B80009A4890F8040100BB974804F031FDC0F585
:100B9000FA709649A1F800010846B0F80001FF2854
:100BA00009DBFF22924991481FF052FCFF208F4938
:100BB000A1F8000105E08D48B0F800218C491FF034
:100BC00047FC0120894981F8040140F2244185480D
:100BD00002F062FF4FF4FA71834804F007FD01212F
:100BE000814804F0EEFC1DF00DF810BD10B51FF0AB
:100BF00071F9044673480078401C72490870204619
:100C00001FF06CF97B4890F80401012807D11CF013
:100C1000F9FF40F22551784802F03EFF10BD40F246
:100C20002551754802F00EFFF8B1734802F08AFEB4
:100C30007049B1F800116F4A50541046B0F80001E5
:100C4000401C1146A1F800010320A1F8020140F266
:100C50002551694802F020FF6648B0F80001FF28DE
:100C600003DB0120634981F804011CF0CBFF00BFC6
:100C7000D4E710B51FF02EF9044652480078401C06
:100C80005049087020461FF029F95C4890F804018B
:100C9000012807D11CF0B6FF40F22551584802F058
:100CA000FBFE10BD40F22551554802F0CBFEF8B1D5
:100CB000534802F047FE5149B1F800114F4A5054D1
:100CC0001046B0F80001401C1146A1F800010320B5
:100CD000A1F8020140F22551494802F0DDFE4748E3
:100CE000B0F80001FF2803DB0120444981F804012A
:100CF0000821434802F090FE50B1414802F022FE24
:100D000008213F4802F095FE00203C49A1F800016F
:100D10001CF078FF00BFC4E770477047704770470A
:100D2000704770477047704770477047704770470B
:100D3000704710B51FF0CEF8044622480078401CDA
:100D40002049087020461FF0C9F82E4890F8040189
:100D5000012807D11CF056FF40F225512A4802F025
:100D60009BFE10BD40F22551274802F06BFEF8B102
:100D7000254802F0E7FD2349B1F80011214A5054FB
:100D80001046B0F80001401C1146A1F800010320F4
:100D9000A1F8020140F225511B4802F07DFE1948DE
:100DA000B0F80001FF2803DB0120164981F8040197
:100DB0001CF028FF00BFD4E77047704770477047AA
:100DC00070477047010900200800002020012142DF
:100DD0006000002000100140610000202800002079
:100DE0002900002000380140580002403A1000203D
:100DF000461600204011002000440040461200200A
:100E0000004800404C130020005000400CB500206A
:100E1000019000906C48006840F480306A49086096
:100E200000BF6948006800F4003000900198401C41
:100E30000190009818B90198B0F5A06FF1D16248FF
:100E4000006800F4003010B10120009001E00020A3
:100E500000900098012843D15C48006840F01000E1
:100E60005A4908600846006820F0030008600846F8
:100E7000006840F0020008605348406852494860EA
:100E80000846406848600846406840F48060486012
:100E90000846406820F47C1048600846406840F4EA
:100EA000E81048600846006840F08070086000BFA5
:100EB0004548006800F000700028F9D042484068BA
:100EC00020F00300404948600846406840F00200B6
:100ED000486000BF3C48406800F00C000828F9D189
:100EE0000CBD10B5FFF792FF10BD10B53648006875
:100EF00040F0010034490860084640683449084021
:100F00003149486008460068324908402E49086067
:100F10000846006820F4802008600846406820F4F5
:100F2000FE0048604FF41F008860FFF7DAFF4FF0C3
:100F300000602949086010BD10B500210020002282
:100F4000214B5B6803F00C0121B1042906D008296C
:100F500028D107E0214B224C236027E01F4B204C77
:100F6000236023E0184B5B6803F47010164B5B683A
:100F700003F48032022303EB904022B9194B434320
:100F8000174C23600DE0104B5B6803F4003323B172
:100F9000144B4343124C236003E0104B4343104C6B
:100FA000236003E00D4B0E4C236000BF00BF064BD7
:100FB0005B68C3F303130C4CE15C094B1B68CB402B
:100FC000074C236010BD00000010024000200240CA
:100FD0000000FFF8FFFFF6FE08ED00E000127A00C7
:100FE0006400002000093D006800002070B505463F
:100FF0000C460020208065212288501C2080A954A6
:1010000000212288501C2080A9542288501C208056
:10101000A954208841194FF400700AF07DFD218801
:10102000084420802088411940F211200AF074FD04
:101030002188084420802088411940F212200AF0BB
:101040006BFD2188084420802088411940F201204E
:101050000AF062FD2188084420802088411940F26E
:1010600002200AF059FD2188084420802088411977
:1010700040F203200AF050FD218808442080208897
:1010800041194FF401700AF047FD2188084420807F
:101090002088411940F206200AF03EFD21880844CC
:1010A00020802088411941F203000AF035FD218893
:1010B00008442080208841194FF408700AF02CFD64
:1010C000218808442080208841194BF223000AF02F
:1010D00023FD218808442080208841194BF2070015
:1010E0000AF01AFD218808442080208841194BF21B
:1010F00008000AF011FD2188084420802088411949
:101100004BF20E000AF008FD218808442080208858
:1011100041194BF228000AF0FFFC21880844208086
:10112000208841194BF221000AF0F6FC218808447E
:101130002080208841194BF229000AF0EDFC21881B
:1011400008442080208841194BF205000AF0E4FC95
:10115000218808442080208841194BF206000AF0BB
:10116000DBFC2188084420802188C81EC11700EBC1
:1011700011610912A0EB012169702188C81EC117F5
:1011800000EB1161090AA9702188284605F05DFF6E
:1011900006463046F11706EB11610912A6EB012154
:1011A000CAB22388591C2180EA54F11706EB116159
:1011B000C1F307222388591C2180EA5470BD10B561
:1011C0000021FE4804F0FDF9FF21FC4804F00EFA6E
:1011D0000121FA4804F0F5F910BD2DE9F04105466A
:1011E0000C46A01E2F5C601E15F80080A01E81B268
:1011F000284605F02AFF0646F0B2B84202D1B8EB05
:10120000162F02D00020BDE8F0810120FBE72DE978
:10121000F041054600240026002700BF6FE00027AC
:10122000285DE74991F88410884221D1601C285C30
:10123000032803D0601C285C102819D1002612E076
:10124000A219121D91B22819FFF7C7FF012806D174
:10125000381DDC49A1F800012046BDE8F081781C6A
:1012600087B2701C86B2C4F1FA00B042E8DC44E0F8
:10127000601C285C5A2818D1002611E0A219121D02
:1012800091B22819FFF7A9FF012805D1381DCD49D2
:10129000A1F800012046E0E7781C87B2701C86B2F6
:1012A000C4F1FA00B042E9DC27E0601C285C352874
:1012B00023D1A01C285CC3281FD1E01C285CFC287B
:1012C0001BD1201D285CC12817D1002611E0A219CE
:1012D000921C91B22819FFF780FF012805D1B81C94
:1012E000B849A1F800012046B7E7781C87B2701C06
:1012F00086B2C4F1FA00B042E9DC601C84B2FA2C78
:101300008DDB4FF0FF30A8E72DE9F05F80460F46F8
:1013100015461C46B81E18F800B0781E18F800A034
:10132000B81E81B2404605F090FE814609F0FF00EC
:10133000584502D1BAEB192F01D0BDE8F09F00202B
:1013400020809F4890F884102288501C2080A95447
:101350005A212288501C2080A95400212288501C28
:101360002080A9542288501C2080A954208841192B
:1013700021200AF0D1FB21880844208020884119CF
:1013800023200AF0C9FB21880844208020884119C5
:1013900024200AF0C1FB21880844208020884119BC
:1013A00025200AF0B9FB21880844208020884119B3
:1013B00026200AF0B1FB21880844208020884119AA
:1013C00027200AF0A9FB21880844208020884119A1
:1013D00030200AF0A1FB2188084420802088411990
:1013E00031200AF099FB2188084420802188C81EFA
:1013F000C11700EB11610912A0EB0121A97021882E
:10140000C81EC11700EB1161090AE970218828463E
:1014100005F01BFE06463046F11706EB1161091276
:10142000A6EB0121CAB22388591C2180EA54F11786
:1014300006EB1161C1F307222388591C2180EA546D
:1014400000BF7AE72DE9F04FADF5077D05460E4662
:1014500091464FF0000B002008908246B9F1020F30
:101460007DD1287826287BD11424BAE1601C285C21
:101470005A2876D0285D524991F88410884270D15C
:10148000601C285C032803D0601C285C1028F6D15F
:101490004B4B93F88420331B99B228190CF0B9F800
:1014A000834649480068C0F3C00000287ED0464803
:1014B000006820F0080044490860002143480068A3
:1014C00022F018FF03D100203D49C86760E03C4985
:1014D000D1F8A80300233E4AA2F10C0104F08FFECC
:1014E00082463C493948006822F0D4FF039022F03C
:1014F000A5FD074621F09CF90022374BCDE90401F8
:1015000022F08CFACDE9060121F042FF2F49086054
:1015100032492E48006822F02BFE019022F08EFD09
:1015200002460B46CDE9020100202B4921F0F2F9D9
:10153000074600222A4B22F071FACDE9040121F07E
:10154000D5FECDE9060121F023FF204908600021E6
:10155000504622F0CFFE18D05146504602E044E1FA
:1015600074E13CE122F096FF1E49079022F092FFC1
:10157000074616480168006822F08CFF804639460D
:1015800022F0F6FD0E49C86702E000200C49C8674A
:101590001548006820F08000803013490860084634
:1015A000006820F4801000F5801000E003E008607F
:1015B0000020064908600448006817E0580002400F
:1015C000380900203A1000200C0000202C000020D8
:1015D000A800002000007A440000244000002041C0
:1015E000000049400050434708000020C0F30010AD
:1015F000002866D0FA48006820F01000F84908601A
:101600000021F848006822F075FE03D10020F64959
:10161000886745E0F449D1F8A4030023F34AA2F116
:101620000C0104F0ECFD8246F149EE48006822F01E
:101630009FFD019022F002FD02460B46CDE902011A
:101640000020EC4921F066F90022EB4BCDE90401C2
:1016500022F0E4F9CDE9060121F048FE074621F029
:1016600097FEE04908600021504622F043FE14D066
:101670005146504622F00EFF8046E04922F00AFF14
:101680000746D8480168006822F004FF39460790F1
:1016900022F06EFDD449886702E00020D2498867B5
:1016A000D748006820F080008030D549086008469F
:1016B000006820F4801000F5801008600020C949FF
:1016C0000860C7480068C0F3401000287ED0C448B6
:1016D000006820F02000C24908600021C948006865
:1016E00022F008FE04D10020BF49C1F880005EE06E
:1016F000BD49D1F8AC030023C34AA2F10C0104F0A8
:101700007EFD8246C149BF48006822F0C3FE0390B7
:1017100022F094FCCDE9040121F08AF80022B54BB7
:10172000CDE9060122F07AF9074621F031FEB549EC
:101730000860AF49B348006822F01AFD019022F01A
:101740007DFC07463A460B460020AA4921F0E2F804
:101750000022A94BCDE9020122F060F9CDE9040194
:1017600021F0C4FDCDE9060121F012FEA549086073
:101770000021504622F0BEFD15D05146504622F0C1
:1017800089FE80469D4922F085FE07469D480168F6
:10179000006822F07FFE3946079022F0E9FC92496A
:1017A000C1F8800003E000208F49C1F88000944810
:1017B000006820F080008030914908600846006889
:1017C00020F4801000F58010086000E002E00020A6
:1017D0008C49086058460DF5077DBDE8F08F601C08
:1017E00084B2B442FFF642AE30E000242CE0601C2C
:1017F000285C5A280FD1321B91B2281908AB09AACC
:10180000FFF782FDBDF8202009A9814805F07AFB89
:10181000BDF82000DFE7285D734991F88410884205
:1018200010D1601C285C032803D0601C285C1028A1
:1018300008D16D4B93F88420331B99B228190BF013
:10184000E8FEC8E7601C84B2B442D0DB0020C2E7E7
:10185000002400BF00BF93E06E4890F80401012807
:1018600010D16C48B0F800110022FFF7EBFDC4B2B4
:101870002146674805F0DCF90020664981F804013B
:10188000A1F80001644890F80401012810D16248D1
:10189000B0F800110022FFF7D5FDC4B221465C4824
:1018A00005F00CFA00205C4981F80401A1F8000160
:1018B00053480068C0F3C010002845D05048006865
:1018C00020F080004E49086008460068C0F30050D0
:1018D000C8B103F04CFB4A48006820F48010484926
:1018E0000860414A4FF4C3710A200CF0B0FA642337
:1018F0000022114610461EF047FA3B4A4FF4AA71E7
:101900000A200CF018FB3E480068C0F38040D8B1B4
:1019100003F02DFB3A48006820F480203849086025
:101920003E4A40F22E2140F214500CF090FA64230B
:101930000022114610461EF027FA384A4FF4FE7175
:1019400040F214500CF0F7FA2D480068C0F3002064
:1019500080B12B48006820F480702949086000F0AD
:101960004BFA0EF063F91E48006820F00200801C5C
:101970001B49086032230022114610461EF004FA6B
:101980006AE72DE9F04104460E460027B8460025D7
:1019900094F8048000BF03E0605D3844C7B26D1C5A
:1019A000B542F9DBF7BB207855283ED16078AA28EC
:1019B0003BD1A078012838D1B8F1000F33D10221F2
:1019C000174805F020F94FF00060406800F07F40B4
:1019D000B0F1006F03D14FF0006005F0F7FB23E09A
:1019E0000C0000203000002038090020D800002022
:1019F00000002041000024400000494000504347BF
:101A00000800002034000020C000002000007A44BC
:101A1000521400203A100020401100208C0A0020AF
:101A200000BC070801E000BF00BFBDE8F081F8B5C9
:101A300006460F4614460120294908706A460021CF
:101A4000284800681DF060FC3946304605F054F91E
:101A5000204608F045F968B900202349A1F80001A3
:101A600081F804011F4800681DF0FDFC00201C499E
:101A70000870F8BD1C48B0F8002101461B4805F06D
:101A800041FA194890F8005100201749A1F80001C7
:101A900081F80401134800681DF0E5FC002010499E
:101AA00008702846E5E710B5044612E003F05FFA37
:101AB0000F48B0F80001092805DB0D4890F8040133
:101AC00008B1012010BD1E230022114610461EF051
:101AD0005BF9201EA4F101018CB2E7D100BFF1E750
:101AE0001C0000204000002046120020521400205C
:101AF0004C13002000B5FFB00020019001A902A8FE
:101B0000FFF774FABDF8041002A805F0F5F80120FB
:101B100008F0E6F80020AB49A1F8000181F80401C3
:101B20007FB000BDA8490968C1F3007131B9002137
:101B3000A64A11703221517002200DE0A44991F89B
:101B40005710A24A11700321517000219170D17079
:101B500011714621517106207047F8B5032514E034
:101B6000FFF7E0FF06466A4600219A4800681DF02C
:101B7000CBFB46223146954808F0CDF804469548FF
:101B800000681DF070FC04B90025281EA5F10101B4
:101B9000CDB2E5D1A4B190480078C82804DA8E48C7
:101BA0000078401C8C4908708B48007802280DDBB7
:101BB00000208A494870442189481EF0E2FC05E073
:101BC000002085490870012084494870F8BD08B597
:101BD00000BF00BF00BF00230222194618461EF0B6
:101BE000D3F84FF4E13001F087F827E07D48006832
:101BF000401C7C49086008460068192818DB002052
:101C000008607948007898B9FFF7A7FF1E230022E3
:101C1000114610461EF0B8F86A4600216D4800686B
:101C20001DF072FBFFF766FF6A4800681DF01BFCA1
:101C300032230022114610461EF0A6F8D6E762496C
:101C40000968C1F3806131B90021604A1170322105
:101C5000517002200DE05E4991F856105B4A1170F8
:101C60000321517000219170D17011714621517181
:101C70000620704770B503250AE0FFF7E0FF06462F
:101C80004622314651480BF08AFD044604B900252E
:101C9000281EA5F10101CDB2EFD1ACB153480078B7
:101CA000C82804DA51480078401C504908704F4851
:101CB000007802280EDB0020484908706821484857
:101CC00068381EF05EFC05E00020484908700120DD
:101CD0004249087070BD70B5002545480078FF285E
:101CE00002D04348007808B9002070BD03245FE0AB
:101CF0003F48007800F07F00062844D13C48007837
:101D000000F0800080281ED1642130481EF017FCAE
:101D10002F4890F856002D49087035204870C32090
:101D20008870FC20C870C1200871EE204871BF2067
:101D30008871AA20C871BB200872FA2048720A2054
:101D40002C4908701DE0642120481EF0F8FB204853
:101D500090F856001D49087035204870C3208870DF
:101D6000FC20C870C1200871EE204871B92088712C
:101D7000D820C871BB200872FA2048720A201D4979
:101D80000870002501E0022500BF00BF5DB90122F7
:101D9000184801780D480BF045FF0024FF20144936
:101DA00008700120A1E7FF201149087000209CE77E
:101DB000201EA4F10101CCB29AD1FF200C49087079
:101DC000002092E746120020080000203A18002068
:101DD00038090020400000207D000020160000206F
:101DE000000D0020780000201C0000207C00002056
:101DF00004000020200000200021FE4A1068442238
:101E0000FD4B83F80C245A23FB4A82F80D3400233F
:101E100082F80E34030C82F80F34030A82F810346F
:101E200082F81104704710B545F2555003F096F84A
:101E3000062003F096F840F20D3003F095F803F019
:101E400096F803F099F810BD10B500242120EA4956
:101E500081F8540100BF07E0E84830F81410E84862
:101E600020F81410601CC4B2322CF5DB002408E00A
:101E7000E44830F81410E248643020F81410601C74
:101E8000C4B2322CF4DB002408E0DF4830F8141030
:101E9000DB48C83020F81410601CC4B2322CF4DBCC
:101EA000002407E0D94830F81410D94820F814105D
:101EB000601CC4B2322CF5DB002408E0D54830F8B1
:101EC0001410D348643020F81410601CC4B2322CB3
:101ED000F4DB0A21C84880F85511162180F8561104
:101EE0000C2180F85711002180F8581180F8591101
:101EF00000F5AA7240F22E2140F214500BF0A7FF19
:101F000010BD70B5044600252320BB490870082089
:101F10004870002088700846BF4909684160BF4981
:101F200009688160BE490968C160BE4909680161EC
:101F3000BD490968416141F64170AF4908832520D8
:101F400081F85600332081F857002D2081F8580081
:101F5000302081F85900352081F85A00412081F85D
:101F60005B004B2081F87200052081F87300AF48B8
:101F7000C865AF480866052081F885006420A1F88F
:101F80008800AC4848661E2081F87000AA4848675F
:101F9000AA488867AA48C867AA48C1F880000120F3
:101FA00081F89000322081F886001E2081F8870099
:101FB000B420A1F88C000320A1F88E000846C07A56
:101FC00081F884001122A0498B48933004F09AFFD5
:101FD00020229E498848A43004F094FF20229C4986
:101FE0008748983804F08EFF20229A498448383870
:101FF00004F088FF102298498148183804F082FFC5
:10200000202296497E48783804F07CFF20229449AB
:102010007B48583804F076FF0422924976481A30FB
:1020200004F070FF042290497348203004F06AFFE6
:1020300004228E497048263004F064FF04228C4943
:102040006D482C3004F05EFF04228A496A48323021
:1020500004F058FF0422884967483E3004F052FFDC
:102060000422864964484A3004F04CFF6248407FAD
:1020700000F5FA606049C883084690F8230000F52F
:10208000FA60888400204885088641F60A20C886C0
:10209000022008870F20488700208887A1F8420087
:1020A000A1F84400A1F84600A1F84800A1F84E00AC
:1020B000A1F85000A1F85200A1F854002CB90A462A
:1020C0004FF4C3710A200BF0C2FE012C06D14A4A1C
:1020D0004FF4C3714FF4FA600BF0B9FE70BD454880
:1020E0000068674908604348001D0068486041482F
:1020F000083000688860704700B58BB00121084641
:1021000001F0E9F85F4803F08FF95F4800905F48FD
:102110000190002002908C200390002004908020E9
:102120000590400006908000079020200890000253
:10213000099000200A906946524803F017FA0121DD
:10214000504803F03EFA0BB000BD00B587B0012146
:10215000480201F0CDF83020ADF8180000208DF8CD
:102160001B0006A94A4801F011FD0F20ADF8180028
:1021700000208DF81B0006A9464801F007FD4248E3
:102180004C3802F0E5F90020019001208DF808009C
:102190008DF809004FF46020039000200490072080
:1021A0008DF8140001A938484C3802F0F8F90723DB
:1021B0000122042134484C3802F089FA0723022214
:1021C000052131484C3802F082FA072303220A2104
:1021D0002D484C3802F07BFA072304220B212A48B1
:1021E0004C3802F074FA072305220C2126484C389B
:1021F00052E00000E8F7FF1F380900206449020898
:10220000940A0020C84902082C4A0208904A020891
:10221000C00B0020F44A02088E48020892480208C7
:10222000964802089A4802089E480208CDCCCC3F46
:102230006666E63F000020C20000AE427B14EE3E20
:10224000DF0D6145F425D044C6480208D74802088E
:10225000F74802081749020837490208D819002030
:10226000F8190020474902084B4902084F49020863
:1022700053490208574902085B4902085F490208AE
:10228000CC190020080002404C240140220F0020FD
:10229000000801400010014002F019FA072306224D
:1022A0000D21FE4802F013FA07231A461021FB48BD
:1022B00002F00DFA012002F02FFB0121F74802F095
:1022C000A5F90121F54802F096F9F44802F0B5F9B4
:1022D00000BFF24802F0B6F90028FAD1EF4802F048
:1022E000BBF900BFED4802F0BCF90028FAD107B0F5
:1022F00000BD00B587B00121880301F006F84FF456
:102300006040ADF8040001208DF8060018208DF81B
:10231000070001A9E24801F039FC4FF48050ADF804
:10232000040001208DF8060010208DF8070001A997
:10233000DB4801F02BFC4FF48051D94801F0D3FC6D
:102340000020ADF808004FF48270ADF80A000020BC
:10235000ADF80C00ADF80E00ADF810004FF40070B1
:10236000ADF812001020ADF814000020ADF81600F2
:102370000720ADF8180002A9CA4801F043F801216E
:10238000C84801F0E4F807B000BD10B586B00446B7
:102390000121312000F0ACFF0121080500F0B5FF5C
:1023A0004FF48050ADF8140003208DF8160018206B
:1023B0008DF8170005A9BC4801F0E8FB0420ADF832
:1023C00014008DF8170005A9B84801F0DFFB01944F
:1023D0000020ADF80800ADF80A00ADF80C00ADF82B
:1023E00010000C20ADF80E0001A9B14801F0ADF9C4
:1023F000012240F22551AE4801F03FFA0121AC48DC
:1024000001F02FFA06B010BD10B586B004460121C8
:10241000042000F06DFF0121480400F076FF042045
:10242000ADF8140003208DF8160018208DF8170061
:1024300005A9A04801F0AAFB0820ADF8140004206B
:102440008DF8170005A99B4801F0A0FB019400201E
:10245000ADF80800ADF80A00ADF80C00ADF81000BA
:102460000C20ADF80E0001A9934801F06EF901228D
:1024700040F22551904801F000FA01218E4801F008
:10248000F0F906B010BD00B58BB00121084600F090
:1024900022FF8A4802F0C8FF8948009089480190CD
:1024A000002002904FF4FA700390002004908020E6
:1024B000059000200690079008904FF480500990F6
:1024C00000200A9069467D4803F050F8002202215E
:1024D0007A4803F082F80121784803F072F80BB0D3
:1024E00000BD10B586B004460121880300F000FF4E
:1024F0004FF40070ADF8140003208DF8160018207A
:102500008DF8170005A96B4801F040FB4FF480607F
:10251000ADF8140004208DF8170005A9654801F0F6
:1025200035FB01940020ADF80800ADF80A00ADF8C5
:102530000C00ADF810000C20ADF80E0001A96048A9
:10254000001F01F002F9012240F224415C48001F03
:1025500001F093F9012240215948001F01F0B2F91E
:1025600001215748001F01F07CF906B010BD08B5E5
:1025700001214FF4FE7000F0BBFE4FF48070ADF807
:10258000000003208DF8020048208DF80300694602
:10259000484801F0FBFA0120ADF8000003208DF857
:1025A000020028208DF803006946424801F0EEFA47
:1025B0000121454801F0BBFB4FF4C250ADF80000CB
:1025C00010208DF8030069463A4801F0DFFA8020B8
:1025D000ADF8000014208DF803006946354801F07D
:1025E000D5FA4FF46070ADF8000010208DF80300AC
:1025F00069462B4801F0CAFA4FF4E070ADF80000CC
:1026000003208DF8020048208DF803006946264813
:1026100001F0BCFA1020ADF8000003208DF8020094
:1026200014208DF8030069461F4801F0AFFA4FF4FB
:102630006060ADF8000003208DF8020010208DF8D6
:1026400003006946184801F0A1FAC020ADF8000067
:1026500003208DF8020010208DF80300694613480E
:1026600001F094FA3C20ADF8000003208DF8020040
:1026700010208DF803006946144801F087FA4FF4E2
:102680008060ADF8000003208DF8020010208DF866
:10269000030069460E4801F079FA1BE0002401406E
:1026A000000C0140003800400010014000140140BF
:1026B0000050004000080140004400405800024023
:1026C0000438014046160020000230000018014086
:1026D000001C01404FF48070ADF8000003208DF81D
:1026E000020010208DF803006946FD4801F04EFA03
:1026F00008BD0EB500214FF0006000F054FC4FF40F
:10270000C06000F019FC26208DF8080001208DF82B
:1027100009008DF80B0002A800F013FC27208DF8AB
:10272000080001208DF809008DF80B0002A800F0C8
:1027300008FC35208DF8080001208DF809008DF87F
:102740000B0002A800F0FDFB17208DF80800002008
:102750008DF809008DF80A0001208DF80B0002A801
:1027600000F0EFFB0821002001F026FB4FF4807001
:10277000009000208DF804000C208DF80500012049
:102780008DF80600684601F063FE0621022001F084
:1027900013FB4020009000208DF8040010208DF8DD
:1027A000050001208DF80600684601F051FE0EBDBF
:1027B00010B50121084600F09BFD10BD10B50020AA
:1027C000C8490860C8490860C849A1F80001A1F8D3
:1027D000020181F80401C6498870C649A1F80001C8
:1027E000A1F8020181F80401C349A1F80001A1F890
:1027F000020181F80401C149A1F80001A1F8020118
:1028000081F80401BE4908700320BE490870B42055
:10281000BD4908700020BD490870BD490870B14825
:10282000006820F40020AF4908600846006820F4E2
:10283000001008600846006820F4005000F50050C1
:1028400008600021AA4880F852130020B14908709E
:10285000B1490870B14908700120B1490870487049
:102860008870A048006820F400009E49086008466F
:10287000006820F0807008600846006820F08060E2
:1028800008600846006820F000600860084600689C
:1028900020F0805008600846006820F4802008601E
:1028A0000846006820F0800008600021904880F809
:1028B00053138C48006820F000708A49086020217A
:1028C00098481DF03CFE202197481DF038FE00205E
:1028D0009649086048608860C860086148618861FE
:1028E000C86108624862924908607E48006820F426
:1028F00080107C4908607C48006820F001007A491B
:1029000008600846006820F0020008600846006879
:1029100020F0080008600846006820F010000860F9
:102920000846006820F02000086000208149086007
:1029300081490860814908608149087081490870AF
:1029400000216B4880F8B01380F8B11380F8B313FE
:1029500080F8B21380F8B41380F8B51380F8B6137A
:1029600080F8B71380F8BC1380F8BD1380F8BE134D
:1029700080F8BF1380F8C01380F8C113C0F8C413E7
:1029800080F8C21380F8C31300206F490870488094
:102990001E2048600020087200216B4880F820103B
:1029A0000120694908760021674841833221C161CD
:1029B0000021017500206449087300216248C1812B
:1029C0004B48B0F888106048016110BD10B586B062
:1029D000FFF7F4FEFFF7ECFEFFF78BFEFFF7C7FDF6
:1029E0000CF07FFE4FF4E130FFF77BFDFFF74BFD6E
:1029F0004FF4E130FFF708FD4FF49640FFF7C5FCB8
:102A000003F01CFB00200CF0ECFE0BF03EF9FFF78E
:102A100070FCFFF79AFBFFF76FFB01214B4801F0B9
:102A20002AFEFFF75CFB03AA0A214FF4FA600BF0C1
:102A300082FA9DF80C1046A01DF006FB9DF80C00D4
:102A4000232808D04AA01DF0FFFA0120FFF759FA09
:102A50004EA01DF0F9FA03AA0A2108460BF06BFA02
:102A60009DF80C1050A01DF0EFFA9DF80C002328E3
:102A700008D052A01DF0E8FA0020FFF742FA53A058
:102A80001DF0E2FA1A4A4FF4AA710A200BF053FA29
:102A900003AA0A2140F214500BF04DFA9DF80C10D5
:102AA00041A01DF0D1FA9DF80C00212807D043A0C9
:102AB0001DF0CAFAFFF7C8F944A01DF0C5FA484A4C
:102AC0004FF4FE7140F214500BF035FAFFF7ABF9FA
:102AD00044A01DF0B9FAFFF78FF902F048FA8CE034
:102AE00000200140080000200C0000203A100020C7
:102AF0003809002040110020461200204C1300200D
:102B000011000020120000201300002014000020FB
:102B1000150000201A0000201B0000201C000020CF
:102B20001D000020D8190020F8190020EC0E00200C
:102B3000240000202C000020300000203400002061
:102B40002800002029000020BC4F00200024014064
:102B5000666163746F72796366672072656164622F
:102B600075665B305D3A202564200D0A0000000088
:102B7000666163746F7279636667207772697465E2
:102B80002E2E2E2E2E200D0A00000000666163748A
:102B90006F7279636667207772697465206F6B2E38
:102BA0002E2E2E2E200D0A00726561646275665B02
:102BB000305D3A202564200D0A00000077726974A8
:102BC000652E2E2E2E2E200D0A00000077726974BD
:102BD00065206F6B2E2E2E2E2E200D0A0000000079
:102BE0008C0A002009496E69744E65742021200DFD
:102BF0000A00000081A01DF027FA0CF08AFF0028CF
:102C0000F8D10CF009FE0446214682A01DF01CFA02
:102C10000EF0B0F802F0ABF90020052102230422E7
:102C2000CDE90010012180A01DF00EFA8BA01DF04F
:102C30000BFA8C48C07A00908A48837A427A017AEB
:102C400089A01DF001FA8748018B8CA01DF0FCF9CA
:102C500006F09EFE90A01DF0F7F90120964908703D
:102C600008460178C02006F04FFD94A01DF0ECF955
:102C700006B010BD70B586B001A800F0CCFAC8212E
:102C80000298B0FBF1F42146B1F1807F00D31DE042
:102C900021F07F40401E4FF0E022506150170F227C
:102CA000002807DA13071E0E8D4B00F00F052D1FAD
:102CB0005E5503E013071D0E8A4B1D5400BF002014
:102CC0004FF0E02290610720106100BF06B070BD98
:102CD00010B50121C80200F018FB4FF4C07002F0DB
:102CE00068F9412002F06EF97F2002F086F902F0C7
:102CF0008FF902F078F910BD10B586B004460121B5
:102D0000082000F0F5FA0121880400F0FEFA4FF4E3
:102D10008060ADF8140003208DF8160018208DF89F
:102D2000170005A9704800F031FF4FF40060ADF8BE
:102D3000140004208DF8170005A96B4800F026FF49
:102D400001940020ADF80800ADF80A00ADF80C00C1
:102D5000ADF810000C20ADF80E0001A9634800F09A
:102D6000F4FC012240F22551604800F086FD01216B
:102D70005E4800F076FD06B010BD704700B585B026
:102D80000121480500F0C1FA0121092000F0B0FA44
:102D90000121022000F0CBFF4FF44070ADF800009D
:102DA00003208DF802001C208DF8030069464E4870
:102DB00000F0ECFE4E4802F035F90020ADF80800B6
:102DC0004BF6FF70ADF80A003020ADF80C004FF460
:102DD0008060ADF80E000001ADF81000454801908C
:102DE0000121434802F0B5F901A9414802F033F945
:102DF00001213F4802F0E9F905B000BD094C5749EF
:102E00005020496E69742046616C69656421200D0B
:102E10000A000000095352414D455820555345447E
:102E20003A202564200D0A0009445A594A47422095
:102E3000313030573A53573D25642E25642E256492
:102E40002C202048573D47584D43535F4454562645
:102E5000464D5F25642E2564200D0A00094F4B2145
:102E6000200D0A003809002049503A2025642E25FB
:102E7000642E25642E2564200D0A0000675F4449F6
:102E80002E4366672E4E65745F506F72743D202529
:102E900064200D0A000000004C43445F496E6974D1
:102EA00069616C206F6B2E2E2E2E2E2E2E2E2E2E26
:102EB0002E2E2E0D0A0000002A00002062737020C2
:102EC000776562206F6B2032303230303332302EF3
:102ED0002E2E2E2E2E2E2E2E2E2E0D0A000000000F
:102EE00018ED00E000E400E0000C01400048004064
:102EF00000540040A0860100094880470948004767
:102F0000FEE7FEE7FEE7FEE7FEE7FEE7FEE7FEE799
:102F1000FEE7FEE704480549054A064B70470000F6
:102F2000EB0E00083101000860640020606A002098
:102F3000606600206066002031490143314A11601B
:102F4000704770B5002100230F22C47804B32D4CC4
:102F5000246804F4E064C4F5E064210AC1F10403C8
:102F6000CA40447804FA03F18478144021430901EB
:102F7000254C0678A155047804F01F050124AC40C7
:102F800005786D11AD0005F1E025C5F8004109E0B7
:102F9000047804F01F050124AC401C4D067876111E
:102FA00045F8264070BD1A4A0A400243154B1B1FC4
:102FB0001A60704739B1134A121D12680243114B4F
:102FC0001B1D1A6006E00F4A121D126882430D4B4A
:102FD0001B1D1A607047042808D14FF0E0210969D1
:102FE00041F004014FF0E022116107E04FF0E021D1
:102FF000096921F004014FF0E022116170470000DF
:103000000000FA050CED00E000E400E080E100E0E3
:1030100080FFFF1FDF48006840F00100DD490860C5
:1030200008464068DC490840DA49486008460068BC
:10303000DA490840D74908600846006820F4802033
:1030400008600846406820F4FE0048604FF41F0006
:1030500088607047CF49096821F48031CD4A1160FA
:103060001146096821F480211160B0F5803F03D03A
:10307000B0F5802F0ED106E0C649096841F48031D1
:10308000C44A116007E0C349096841F4A021C14A5C
:10309000116000E000BF00BF704710B5014600227C
:1030A000002300204A11012A02D1BA4C236806E00D
:1030B000022A02D1B74C236A01E0B64C636A01F0E0
:1030C0001F02012494401C400CB1012000E00020AC
:1030D00010BD38B5002000900024002500BF31202D
:1030E000FFF7DBFF05460098401C00900098B0F504
:1030F000A06F01D0002DF2D03120FFF7CEFF08B134
:10310000012400E00024204638BD01460020A14AE9
:10311000106820F0F80040EAC10010607047A04934
:1031200008607047024600209A4B586820F47C10D3
:1031300042EA01031843974B586070479849086664
:10314000704701460020934A506820F0030008436E
:10315000506070478F48406800F00C00704701468F
:1031600000208C4A506820F0F000084350607047FF
:1031700001460020874A506820F4E0600843506010
:10318000704701460020834A506820F4605040EAAE
:10319000C1005060704729B17E4A527A02437D4B8C
:1031A0005A7204E07B4A527A82437A4B5A727047D1
:1031B0007B49D8310860704701460020754A506845
:1031C00020F440400843506070470021714A20328B
:1031D0001170704A82F82010012802D004280AD108
:1031E00004E001216B4A2032117005E00521694A93
:1031F0002032117000E000BF00BF704769490860CD
:1032000070476449096A0143624A1162704765491F
:1032100044390860704730B50021002200240023A3
:103220005C4D6D6805F00C0121B1042905D0082919
:1032300023D105E05C4D056022E05B4D05601FE099
:10324000544D6D6805F47012524D6D6805F480346C
:10325000022505EB92421CB9544D554305600BE025
:103260004C4D6D6805F400351DB1504D554305605A
:1032700002E04D4D5543056002E04B4D056000BF37
:1032800000BF444D6D6805F0F0010909484D6B5CC5
:103290000568DD4045603F4D6D6805F4E061090A51
:1032A000434D6B5C4568DD4085603A4D6D6805F4C3
:1032B0006051C90A3E4D6B5C4568DD40C560354DC7
:1032C0006D6805F44041890B3A4D6B5CC568B5FBF0
:1032D000F3F5056130BD29B12E4A526902432D4BE9
:1032E0005A6104E02B4A526982432A4B5A61704763
:1032F00029B1284A92690243264B9A6104E0254A83
:1033000092698243234B9A61704729B1214AD2695D
:103310000243204BDA6104E01E4AD26982431D4B0E
:10332000DA61704729B11B4AD2680243194BDA604F
:1033300004E0184AD2688243164BDA60704729B11C
:10334000144A12690243134B1A6104E0114A1269CC
:103350008243104B1A617047124940390860704728
:103360000F49C86470470B49C87170470948406AE3
:1033700040F0807007494862704701460020054AC6
:1033800092680A400AB1012000E00020704701491C
:1033900088727047001002400000FFF8FFFFF6FE41
:1033A000000042428004424200127A0000093D00BF
:1033B0007E0000208E00002010B50446BE488442E6
:1033C00008D101218014FFF7ADFF0021A014FFF701
:1033D000A9FF16E0B948844208D101210014FFF783
:1033E000AEFF00212014FFF7AAFF0AE0B448844290
:1033F00007D10121C013FFF7A2FF0021E013FFF75F
:103400009EFF10BD10B50022028802F441520B88C5
:103410004C8823438C882343CC8823430C89234343
:103420004C8923438C892343CC8923431A4302804C
:10343000838B4FF2FF74234083830B8A038210BD7A
:103440002DE9F04F85B005460C464FF000090227E4
:103450004FF000084FF0010B0026B246A88B4FF248
:1034600040010840A88302202884B5F81C90A06879
:10347000022801D100BF38E0A08810B94FF0010B3D
:1034800001E04FF0020B8D48854200D100E000BF03
:103490006846FFF7C0FEDDF800A0E088B0F5007FC9
:1034A0000AD14FEA1A2000EB80004000A168B0FB6F
:1034B000F1F0401D86B20BE04FEA4B10BAFBF0F082
:1034C00000EB80004000A168B0FBF1F0401D86B227
:1034D0000A20B6FBF0F606F00108A6EB0800C0F3E0
:1034E0004F074FF6FF7000EA0828022F01DBFF2F7D
:1034F00002DD02274FF00008E08840EA0800384368
:103500002884A088A189084361880843218808434A
:1035100040F4006040EA0909A5F81C9005B0BDE838
:10352000F08F0021018041808180C1800181418133
:103530008181C18107210182704700210180418082
:103540008180C1800221816000218181704721B189
:10355000028842F04002028004E002884FF6BF7306
:103560001A400280704721B1828B42F480628283CC
:1035700004E0828B4FF6FF331A408283704730B5E8
:10358000002400230C110125A540ABB21AB1858897
:103590001D43858002E085889D43858030BD1AB13A
:1035A00083880B43838002E083888B43838070474A
:1035B000818170470146888970474FF6FF629142CA
:1035C00004D0028842F48072028004E002884FF640
:1035D000FF631A400280704721B1828842F00402E2
:1035E000828004E082884FF6FB731A408280704725
:1035F00002884FF2FF731A40028002880A43028059
:103600007047018841F480510180704721B10288E0
:1036100042F40052028004E002884DF6FF731A4023
:103620000280704702460020012901D0108B00E083
:10363000908A70470146088A7047B1F5804F04D1DF
:10364000028842F48042028004E002884BF6FF7355
:103650001A40028070470246002013890B400BB1CC
:10366000012000E000207047CA4302817047F0B596
:103670000246002000240023002501F00F07012648
:10368000BE40B4B20B1101269E40B3B2968806EA42
:1036900003051689264016B10DB1012000E0002077
:1036A000F0BD10B5002201F00F040123A3409AB22F
:1036B000D343038110BD00000030014000380040BA
:1036C000003C004010B50446FB48844209D101216A
:1036D0008803FFF727FE00214FF48040FFF722FE0A
:1036E00032E0F648844209D101214804FFF727FE61
:1036F00000214FF40030FFF722FE25E0F04884421D
:1037000009D101218804FFF71AFE00214FF480201F
:10371000FFF715FE18E0EB48844209D10121C804E7
:10372000FFF70DFE00214FF40020FFF708FE0BE02D
:10373000E548844208D101210805FFF700FE002179
:103740004FF48010FFF7FBFD10BD2DE9F04786B068
:1037500005460E460024A24600BFA1460027B089B8
:1037600000B100BF2F462C8A4CF6FF700440F08851
:1037700004432C82AC894EF6F3100440B0883189A2
:103780000843718908430443AC81AC8A4FF6FF407B
:103790000440B0890443AC8201A8FFF73CFDC64851
:1037A000874202D1DDF810A001E0DDF80CA0A88965
:1037B00000F4004040B10AEBCA0000EB0A10316887
:1037C0004900B0FBF1F807E00AEBCA0000EB0A1071
:1037D00031688900B0FBF1F86420B8FBF0F0040117
:1037E0002009642101FB1089A88900F4004040B140
:1037F000322000EBC900B0FBF1F000F007000443F9
:1038000008E0322000EB09106421B0FBF1F000F079
:103810000F0004432C8106B0BDE8F0874FF4165129
:10382000016000218180C18001810C214181002142
:103830008181704710B502460020108A4FF2FF03C5
:1038400018400B884C8823438C882343CC8823431F
:103850001843108210BD0021018041808180C18009
:10386000704721B1828942F40052828104E082894A
:103870004DF6FF731A4082817047F0B5034600246D
:1038800000260025002040F66A17B94200D100BF8B
:103890001846C1F3421401F01F06012707FA06F586
:1038A000012C01D10C3004E0022C01D1103000E0D9
:1038B00014301AB107682F43076002E00768AF436E
:1038C0000760F0BD1AB1838A0B43838202E0838ACA
:1038D0008B4383827047028A4FF6F0731A4002824C
:1038E000028A0A430282704782894FF2FF731A40AC
:1038F000828182890A438281704721B1828942F0A4
:103900000202828104E082894FF6FD731A408281AF
:103910007047028A4FF6DF731A400282028A0A4316
:103920000282704721B1028A42F48042028204E09E
:10393000028A4BF6FF731A4002827047C1F30802F5
:103940008280704701468888C0F3080070478189EB
:1039500041F0010181817047028BD2B20283028B58
:1039600042EA012202837047028B02F47F42028303
:10397000028B0A430283704721B1828A42F02002FF
:10398000828204E0828A4FF6DF731A408282704797
:1039900021B1828A42F01002828204E0828A4FF6CC
:1039A000EF731A408282704721B1828A42F0080286
:1039B000828204E0828A4FF6F7731A40828270474F
:1039C00021B1828942F40042828103E08289C2F3FC
:1039D0000E028281704721B1828A42F400628282A3
:1039E00004E0828A4FF2FF731A4082827047828A13
:1039F0004FF6FB731A408282828A0A4382827047A2
:103A000021B1828A42F00202828204E0828A4FF669
:103A1000FD731A408282704702460020B1F5007F94
:103A200000D100BF13880B400BB1012000E0002043
:103A3000704701F40072B2F5007F00D100BFCA43A5
:103A40000280704770B50246002400230025002044
:103A500040F66A16B14200D100BFC1F3421501F031
:103A60001F03012606FA03F3012D02D19689334084
:103A700006E0022D02D1168A334001E0968A3340D7
:103A80000C12012606FA04F41688344013B10CB166
:103A9000012000E0002070BD10B50022002340F698
:103AA0006A14A14200D100BF0A1201249440A3B2BB
:103AB000DC43048010BD0000003801400044004099
:103AC00000480040004C00400050004010B5044643
:103AD000CC48844208D101210420FFF723FC0021B7
:103AE0000420FFF71FFC46E0C748844208D10121AB
:103AF0000820FFF717FC00210820FFF713FC3AE02D
:103B0000C248844208D101211020FFF70BFC00219C
:103B10001020FFF707FC2EE0BD48844208D10121A8
:103B20002020FFF7FFFB00212020FFF7FBFB22E016
:103B3000B848844208D101214020FFF7F3FB00215F
:103B40004020FFF7EFFB16E0B348844208D1012183
:103B50008020FFF7E7FB00218020FFF7E3FB0AE06E
:103B6000AE48844207D101218015FFF7DBFB00211D
:103B7000A015FFF7D7FB10BD10B501210846FFF7D0
:103B8000D1FB00210120FFF7CDFB10BD2DE9F04155
:103B9000024600250026002000230024002791F87B
:103BA00003C00CF00F0591F803C00CF0100CBCF131
:103BB000000F03D091F802C04CEA050591F800C04F
:103BC000BCF1000F31D0146800202BE04FF0010C45
:103BD0000CFA00F3B1F800C00CEA03069E4220D1B3
:103BE00083004FF00F0C0CFA03F7BC4305FA03FCFB
:103BF0004CEA040491F803C0BCF1280F06D14FF041
:103C0000010C0CFA00FCC2F814C00AE091F803C0E1
:103C1000BCF1480F05D14FF0010C0CFA00FCC2F8C2
:103C200010C0401C0828D1D31460B1F800C0BCF10A
:103C3000FF0F34DD546800202EE000F1080C4FF037
:103C4000010808FA0CF3B1F800C00CEA03069E4222
:103C500021D183004FF00F0C0CFA03F7BC4305FA97
:103C600003FC4CEA040491F803C0BCF1280F05D111
:103C700000F1080C08FA0CF8C2F8148091F803C09F
:103C8000BCF1480F07D100F1080C4FF0010808FA09
:103C90000CF8C2F81080401C0828CED35460BDE850
:103CA000F0814FF6FF710180022181700421C17003
:103CB00070470246002093680B400BB1012000E0E2
:103CC000002070470146886880B270470246002095
:103CD000D3680B400BB1012000E000207047014683
:103CE000C86880B2704701617047416170470AB18E
:103CF000016100E041617047C16070474FF480325C
:103D00000A438261816182618269826970470246E9
:103D10000020434B18684FF68073184040EA0210A9
:103D200008433F4B186070473E49C8617047F0B583
:103D30000A46002300240021002500F00046B6F1C9
:103D4000004F02D1364EF16901E0354E7168C0F383
:103D5000034583B200F44016B6F5401F08D121F0A8
:103D600070612F4E766826F070662D4F7E6012E0EF
:103D700000F48016B6F5801F06D1032606FA05F476
:103D8000A14341F0706106E0460D360103FA06F6E4
:103D9000B14341F0706122B1460D360103FA06F6D7
:103DA000314300F00046B6F1004F02D11C4EF161E4
:103DB00001E01B4E7160F0BD30B500228B071C0F77
:103DC0000F2303FA04F2164B08338C1053F82430F7
:103DD0009343134C08348D1044F8253023468C103F
:103DE00053F824308C07240F00FA04F423430C4CBE
:103DF00008348D1044F8253030BD0A49DC310860A4
:103E00007047000000080140000C01400010014014
:103E10000014014000180140001C01400020014036
:103E2000000001400000204230B943F2DB02810073
:103E3000A1F1C0410A6005E043F2D2028100A1F184
:103E4000C0410A606FF07042411C8900A1F1C0417D
:103E50000A608100A1F1C041C1F804217047102817
:103E60000AD118214FF020421166402151664FF0CF
:103E7000FC319166D16610E01821F74A11604021AB
:103E80004FF02042C2F884104FF0FC31F24A083261
:103E900011604FF02042C2F88C1070471820EE4994
:103EA0002031086000200906C1F8A4004FF0FC3062
:103EB000E94928310860091D0860091D086070473C
:103EC000D0E901121143C2681143026911434269EA
:103ED000114382691143C2691143026A1143426A64
:103EE0001143826A1143C26A1143026B1143026893
:103EF0009200A2F1C0421160816808290BD10168CB
:103F00008900A1F1C041096841F0400201688900BF
:103F1000A1F1C0410A60416B0968426B526841EAF5
:103F20000211426B926841EA0221426B928941EA96
:103F30000241426B128A41EA0251426B127D41EA10
:103F40000261426B926911430268521C9200A2F115
:103F5000C0421160C16AB1F5804F1BD1816B096805
:103F6000826B526841EA0211826B926841EA022137
:103F7000826B128A41EA0251826B127D41EA026130
:103F8000826B9269114302689200A2F1C042C2F8AA
:103F9000041107E06FF0704201688900A1F1C0418F
:103FA000C1F80421704730B5002100220023446885
:103FB00044F0080485682C43C5682C4305692C43EC
:103FC000456944EA4524856944EA4531C469246861
:103FD000C5696D6844EA0524C5692D8944EA05442C
:103FE000C5692D7B44EA0562046A2468056A6D6828
:103FF00044EA0524056A2D8944EA0544056A2D7BB7
:1040000044EA05630468102C05D14FF02044216672
:10401000A266E36608E0904C21604FF02044C4F8AB
:1040200088208D4C0C34236030BD016841F01001B4
:10403000426841EA4221826841EA4231864A20329E
:104040001160C1680968C268526841EA0221C26809
:10405000128941EA0241C268127B41EA02617E4A4A
:1040600028321160016909680269526841EA022137
:104070000269128941EA02410269127B41EA026146
:10408000754A2C321160416909684269526841EAF7
:1040900002214269128941EA02414269127B41EAE6
:1040A00002614FF02042C2F8B01070470021016059
:1040B0000221416000218160C16001614161816133
:1040C000C16101624FF48051416249008162002167
:1040D000C16201630F21426B1160426B5160FF218D
:1040E000426B91600F21426BD160426B1161426B58
:1040F00051610021426B91610F21826B1160826BD3
:104100005160FF21826B91600F21826BD160826BC5
:104110001161826B51610021826B916170471021A6
:104120000160002141608160C16001614161816184
:10413000FC21C2691160C2695160C2699160C269A3
:10414000D160026A1160026A5160026A9160026A7B
:10415000D16070470021016041608160FC21C2682C
:104160001160C2685160C2689160C268D160026922
:10417000116002695160026991600269D16042690F
:10418000116042695160426991604269D160704733
:1041900051B18200A2F1C042126842F001038200D4
:1041A000A2F1C042136009E08200A2F1C04212688D
:1041B0002A4B1A408300A3F1C0431A60704799B19B
:1041C000102808D14FF02042126E42F004024FF046
:1041D00020431A661DE0204A126842F004024FF0A4
:1041E0002043C3F8802014E0102809D14FF020426A
:1041F000126E1A4BDB1E1A404FF020431A6608E07D
:10420000154A1268154BDB1E1A404FF02043C3F8C5
:104210008020704748B110492031096841F00401FD
:104220004FF02042C2F8A01009E00B492031096884
:104230000A4AD21E11404FF02042C2F8A010704727
:10424000B9B110280CD14FF02042126E42F040025A
:104250004FF020431A661FE0800000A0FEFF0F0011
:10426000724A126842F040024FF02043C3F88020A7
:1042700012E0102808D14FF02042126E6C4B1A4009
:104280004FF020431A6607E0684A1268684B1A40EC
:104290004FF02043C3F880207047014600201029CA
:1042A00003D14FF02042506F02E0604A1432106890
:1042B000704710B5F2B1102807D14FF020435B6E64
:1042C0000B434FF02044636632E0B0F5807F08D1A5
:1042D000564B1B1D1B680B434FF02044C4F8843021
:1042E00026E0524B24331B680B434FF02044C4F8A4
:1042F000A4301DE0102807D14FF020435B6E8B43A4
:104300004FF02044636613E0B0F5807F08D1474B3F
:104310001B1D1B688B434FF02044C4F8843007E01A
:10432000424B24331B688B434FF02044C4F8A43025
:1043300010BD10B5024600200023102A03D14FF013
:104340002044636E09E0B2F5807F03D1374C241D11
:10435000236802E0354C2434236803EA01040CB1DD
:10436000012000E0002010BD102807D14FF02042AE
:10437000526E8A434FF020435A6613E0B0F5807FB7
:1043800008D12A4A121D12688A434FF02043C3F80D
:10439000842007E0254A243212688A434FF02043E4
:1043A000C3F8A420704770B5024600200023002403
:1043B0000025102A03D14FF02046736E09E0B2F5B4
:1043C000807F03D1194E361D336802E0174E243624
:1043D000336803EA010403EAD10514B10DB10120E9
:1043E00000E0002070BD102808D14FF02042526E2E
:1043F00022EAD1024FF020435A6615E0B0F5807FE3
:1044000009D10A4A121D126822EAD1024FF0204354
:10441000C3F8842008E0054A2432126822EAD10257
:104420004FF02043C3F8A42070470000800000A094
:10443000BFFF0F00002044490860091D0860091DE6
:104440000860091D086041483F4914310860704701
:1044500000213D498279002A3AD00A461268036851
:104460009A430B461A600A1D126803689A430B1D93
:104470001A60027911440A6803681A430A60324AD2
:104480000832126803689A432F4B08331A601A1DCA
:10449000126803689A432C4B0C331A604279102A35
:1044A0000ED11A1F126803681A43274B08331A608B
:1044B0001A1D126803681A43234B0C331A600DE06F
:1044C0002149427911440A6803681A430A6005E0E9
:1044D000027911440A6803689A430A607047002110
:1044E000016001710C2141710021817170471649F1
:1044F000103109680143144A1032116070470146B7
:104500000020114A143212680A400AB1012000E06A
:10451000002070470C4914310860704701460020A4
:104520000022094B1B6803EA0102074B14331B6886
:104530000B4013B10AB1012000E00020704702498E
:10454000143108607047000000040140FFFF0F00B5
:1045500010B50446FA48844208D101214015FEF7FF
:10456000E1FE00216015FEF7DDFE17E0F54884420C
:1045700008D101210015FEF7D5FE00212015FEF718
:10458000D1FE0BE0F048844208D10121C803FEF7B8
:10459000C9FE00214FF40040FEF7C4FE10BD30B547
:1045A0000246002000235068E84C20400D790C683A
:1045B00044EA0524204350609068E54C2040D1E94E
:1045C00002542C434D7944EA450420439060D06A5C
:1045D00020F470000C7C641EE4B2234340EA0350D4
:1045E000D06230BD00210160017141718160C16004
:1045F00001210174704721B1826842F0010282609A
:1046000003E0826822F001028260704721B1826873
:1046100042F48072826003E0826822F480728260D9
:10462000704710B50023CBB21AB144681C434460F4
:1046300002E044689C43446010BD816841F0080179
:1046400081607047014600208A6802F008020AB1C2
:10465000012000E000207047816841F00401816082
:104660007047014600208A6802F004020AB1012066
:1046700000E00020704721B1826842F4A00282600D
:1046800003E0826822F4A0028260704701460020A5
:104690008A6802F480020AB1012000E0002070471D
:1046A00010B50A4600210023416821F46041531EE1
:1046B00041EA4331416010BD21B1426842F40062D9
:1046C000426003E0426822F4006242607047F0B545
:1046D00004460D4600200021092D11DDE068A5F1FA
:1046E0000A0606EB4607072606FA07F18843A5F1F6
:1046F0000A0606EB460603FA06F10843E0600CE002
:10470000206905EB4507072606FA07F1884305EB04
:10471000450603FA06F108432061072A0FDA606BA9
:10472000561E06EB86071F2606FA07F18843561E1B
:1047300006EB860605FA06F10843606322E00D2ABF
:104740000FDA206BD61F06EB86071F2606FA07F145
:104750008843D61F06EB860605FA06F10843206358
:1047600010E0E06AA2F10D0606EB86071F2606FAA6
:1047700007F18843A2F10D0606EB860605FA06F15D
:104780000843E062F0BD21B1826842F48012826089
:1047900003E0826822F48012826070470146C86C90
:1047A00080B2704766484C300068704721B142685B
:1047B00042F48062426003E0426822F48062426018
:1047C000704721B1426842F48052426003E042687F
:1047D00022F48052426070470A460021816821F429
:1047E000E04111438160704721B1826842F4004288
:1047F000826003E0826822F400428260704721B147
:10480000826842F40212826003E0826822F402129B
:1048100082607047014600208A6802F400120AB1E3
:10482000012000E000207047F0B504461546002046
:1048300000220026092911DDE068A1F10A0707EB33
:10484000470C072707FA0CF29043A1F10A0707EB80
:10485000470703FA07F21043E0600CE0206901EB20
:10486000410C072707FA0CF2904301EB410703FACA
:1048700007F210432061A06BC0F30156EF1C06F154
:10488000010CA7EB0C0707EB870C1F2707FA0CF2AC
:104890009043EF1C06F1010CA7EB0C0707EB870711
:1048A00001FA07F21043A063F0BD10B50A460021DB
:1048B0000023816B21F44011531E41EA03518163AF
:1048C00010BD08B5002300930090009B0B4400939B
:1048D000009B1A6008BD08B50246002000900092B7
:1048E00001F12800009B184400900098006880B2F5
:1048F00008BD0A4600214168164B1940114341602A
:1049000070474162826270470A460021416821F087
:104910001F0111434160704740B1094908310968DE
:1049200041F40001064A0832116007E004490831E9
:10493000096821F40001024A083211607047000042
:104940000024014000280140003C0140FFFEF0FF30
:10495000FDF7F1FFFFFD3FFF0246002013680B400B
:104960000BB1012000E000207047CA43026070478D
:1049700070B502460020002300240B125568CEB209
:1049800005EA060415681D4015B10CB1012000E0D0
:10499000002070BD00220A12D3430360704700005C
:1049A00001460020FE4A106800F0380008431060FD
:1049B0007047FB49096821F00801F94A1160114666
:1049C0000968014311607047F549096821F0100139
:1049D000F34A116011460968014311607047F148BC
:1049E000EF494860F04848607047EE48EC4948603D
:1049F000ED4848607047EA48006940F08000E849A7
:104A000008617047E648006940F08000E4490861A9
:104A100070470420E249C96801F0010109B1012091
:104A20000EE0DF49C96801F0040109B1022007E086
:104A3000DB49C96801F0100109B1032000E004203E
:104A4000704700B502460423FFF7E3FF034603E087
:104A5000FFF7DFFF0346521E012B01D1002AF7D1D9
:104A600002B90523184600BD30B5044604254FF4AD
:104A70003020FFF7E6FF0546042D17D1C84800692E
:104A800040F00200C649086108464461006940F0F0
:104A9000400008614FF43020FFF7D3FF0546C048BF
:104AA000006941F6FD710840BD490861284630BDE6
:104AB00010B504244FF43020FFF7C3FF0446042C44
:104AC00016D1B748006940F00400B54908610846AE
:104AD000006940F0400008614FF43020FFF7B1FF5B
:104AE0000446AF48006941F6FB710840AC490861D3
:104AF000204610BD00B502460423FFF78AFF034697
:104B000003E0FFF786FF0346521E012B01D1002A66
:104B1000F7D102B90523184600BD10B504244FF49F
:104B20003020FFF7E7FF0446042C16D19C480069AB
:104B300040F004009A4908610846006940F04000CE
:104B400008614FF43020FFF7D5FF04469448006910
:104B500041F6FB71084092490861204610BD0020D3
:104B60008F49C96901F0020109B1012000E000206C
:104B7000704730B5A5250424FFF7F1FF00B10025EB
:104B80004FF43020FFF75DFF0446042C3AD18548EE
:104B900083498860844888600846006940F02000A6
:104BA00008610846006940F0400008614FF4302079
:104BB000FFF747FF0446042C1BD17948006941F6F2
:104BC000DF710840764908610846006940F010002E
:104BD000086176480580E002FFF733FF0446052CA4
:104BE00010D06F48006941F6EF7108406C490861C8
:104BF00008E0052C06D06A48006941F6EF710840CC
:104C000067490861204630BD78B506460C46042544
:104C100000200090E802FFF714FF0546042D24D180
:104C20005F48006940F001005D4908613480E80296
:104C3000FFF707FF0546042D10D1B01C0090200C93
:104C400000990880E802FFF7FCFE05465448006919
:104C500041F6FE7108405249086106E0504800697B
:104C600041F6FE7108404E490861284678BD70B58E
:104C700004460D460426F002FFF7E3FE0646042E26
:104C800011D14748006940F001004549086125807D
:104C9000F002FFF7D6FE06464148006941F6FE7174
:104CA00008403F490861304670BD70B505460E4664
:104CB0000424E002FFF7C5FE0446042C17D139484E
:104CC00037498860384888600846006940F010001D
:104CD00008612E80E002FFF7B4FE0446052C06D0E2
:104CE0002F48006941F6EF7108402D4908612046C0
:104CF00070BD2DE9F04304464FF6FF763746B046C7
:104D0000B1460425E443E6B2C4F30727C4F30748D9
:104D10004FEA1469E802FFF794FE0546042D49D1D5
:104D200020481F498860204888600846006940F094
:104D300010000861FF2E06D01C4808300680E802EB
:104D4000FFF77FFE0546042D08D1FF2F06D0174838
:104D50000A300780E802FFF774FE0546042D0AD1E9
:104D6000B8F1FF0F07D011480C30A0F80080E8021E
:104D7000FFF767FE0546042D0AD1B9F1FF0F07D0F2
:104D80000A480E30A0F80090E802FFF75AFE0546E8
:104D9000052D0FD00248006941F6EF71084007E089
:104DA0000020024023016745AB89EFCD00F8FF1FCB
:104DB000664908612846BDE8F08330B505460424FD
:104DC0004FF43020FFF73DFE0446042C41D16048EB
:104DD0005E4988605F4888600846006940F02000AE
:104DE00008610846006940F0400008614FF4302037
:104DF000FFF727FE0446042C22D15448006941F6EF
:104E0000DF710840514908610846006940F0100010
:104E100008611DB100205049088002E0A5204E49DC
:104E200008804FF43020FFF70CFE0446052C10D00C
:104E30004648006941F6EF7108404449086108E0BE
:104E4000052C06D04148006941F6DF7108403F4912
:104E50000861204630BDF0B505460E4617460424CD
:104E60003B483A4988603B488860E002FFF7E9FD2B
:104E70000446042C19D13548006940F0100033492C
:104E8000086147F0F800304328433349891C088003
:104E9000E002FFF7D6FD0446052C06D02B4800693A
:104EA00041F6EF710840294908612046F0BD2748C6
:104EB000C069800870472548006A70470020234970
:104EC000096801F0200109B1012000E000207047CD
:104ED00029B11E4A126902431C4B1A6104E01B4AA5
:104EE00012698243194B1A6170470146002001295B
:104EF00008D1164AD26902F001020AB1012008E085
:104F0000002006E0114AD2680A400AB1012000E000
:104F1000002070470D49C860704704200B49C968DC
:104F200001F0010109B101200EE00849C96801F052
:104F3000040109B1022007E00449C96801F0100129
:104F400009B1032000E00420704700000020024067
:104F500023016745AB89EFCD00F8FF1F0E490860BC
:104F600070470D49486070470B49886070474AF6A2
:104F7000AA200949086070474CF6CC4006490860F1
:104F8000704701460020044AD2680A400AB1012055
:104F900000E00020704700000030004010B5012103
:104FA000C802FEF7CCF900214FF40060FEF7C7F904
:104FB00010BD0021194A126822F4C0710143174A3A
:104FC0001160704708B5002100911449096821F06B
:104FD0007F01009100F07F01009A114300910F4A78
:104FE0000099116008BD01200D490860704700F06C
:104FF0007F010A4A121F1160704740F08001074A82
:10500000121F116070470548001D0068C0B270474C
:1050100000200249091D086070470000042C004070
:10502000A480054210B50446F748844209D1012105
:105030004805FEF784F900214FF40010FEF77FF9D0
:1050400008E001218805FEF77AF900214FF480007D
:10505000FEF775F910BD2DE9F04385B004460D4605
:105060000026B1460427DFF8A483A6884FF6C07057
:1050700006406846FEF7CFF8DDF80880E448B8FB44
:10508000F0F01FFA80F946EA0906A68020884FF65C
:10509000FE71084020800026DE49286888420CD82E
:1050A00028684000B8FBF0F087B2042F00DA04272C
:1050B0003E4309F10100208427E0E8884BF6FF71A8
:1050C000884206D1286800EB4000B8FBF0F087B2B8
:1050D00009E0286800EBC00101EB0010B8FBF0F01C
:1050E00087B247F48047C7F30B0008B947F00107C0
:1050F00047F4004006434FF4967009FB00F04FF46C
:105100007A7190FBF1F0401C2084A683208840F047
:105110000100208026884FF6F5300640A88869896E
:10512000084306432680A88929890843208105B0C1
:10513000BDE8F08341F288310160002181804BF6A7
:10514000FF71C1800021018141814FF48041818143
:10515000704721B1028842F00102028004E0028817
:105160004FF6FE731A400280704721B1828842F4E4
:105170000062828004E082884FF2FF731A408280CE
:10518000704721B1828842F48052828004E0828894
:105190004EF6FF731A408280704721B1028842F4B4
:1051A0008072028004E002884FF6FF631A4002809A
:1051B000704721B1028842F40072028004E0028844
:1051C0004FF6FF531A400280704721B1028842F423
:1051D0008062028004E002884FF6FF331A400280AA
:1051E00070470A46002181894FF60173194002F089
:1051F000FE0319438181704721B1828942F0010287
:10520000828104E082894FF6FE731A4082817047E2
:1052100021B1028842F04002028004E002884FF689
:10522000BF731A40028070471AB183880B43838092
:1052300002E083888B438380704701827047014678
:10524000088AC0B2704712B141F0010102E04FF686
:10525000FE7319400182704708B502460020009095
:1052600000920098084400900098008808BD21B181
:10527000028842F40042028003E00288C2F30E0278
:1052800002807047B1F5006F04D1028842F40062D9
:10529000028004E002884FF2FF731A4002807047D8
:1052A000B1F5005F04D1028842F40052028004E0AC
:1052B00002884DF6FF731A400280704721B10288C0
:1052C00042F48052028004E002884EF6FF731A40D6
:1052D00002807047B1F5006F04D1028842F4006289
:1052E000028004E002884FF2FF731A400280704788
:1052F00021B1028842F02002028004E002884FF6C9
:10530000DF731A40028070470146088B0012704715
:1053100021B1028842F01002028004E002884FF6B8
:10532000EF731A400280704721B9028842F0800270
:10533000028004E002884FF67F731A4002807047B3
:10534000B1F5804F05D0828B4BF6FF731A408283F4
:1053500003E0828B42F480428283704770B502463C
:105360000024002500230020958A138B1B0445EAA6
:10537000030626F07F4404EA01068E4201D1012093
:1053800000E0002070BD10B501460020002300227F
:105390008B8A0A8B120443EA020424F07F4010BD7A
:1053A0000CB50246002000230193009300920B0FDE
:1053B000019321F07F41019B1BB1009B14330093AB
:1053C00003E0090C009B18330093009B1B680B4003
:1053D0000BB1012000E000200CBD002221F07F4233
:1053E000D3438382704730B502460020002394885F
:1053F00001F0E06504EA154321F07F41948A0C40F6
:1054000054B14BB1012008E00054004000127A0072
:1054100040420F00A0860100002030BD002221F094
:105420007F42D3438382704701684FF6FE7211407A
:1054300001600021016041608160C1608D49884246
:1054400008D18C490839496841F00F01894A083A66
:1054500051608AE087491431884208D1854908396A
:10546000496841F0F001834A083A51607DE0814982
:105470002831884208D17F490839496841F4706170
:105480007C4A083A516070E07A493C31884208D140
:1054900078490839496841F47041764A083A5160C0
:1054A00063E074495031884208D17249083949682B
:1054B00041F470216F4A083A516056E06D496431F9
:1054C000884208D16B490839496841F47001694A3A
:1054D000083A516049E067497831884208D1654906
:1054E0000839496841F07061624A083A51603CE00D
:1054F0006149884206D1011F096841F00F01021F6E
:10550000116032E05C491431884208D15A49091FC0
:10551000096841F0F001584A121F116025E0564910
:105520002831884208D15449091F096841F4706143
:10553000514A121F116018E04F493C31884208D18E
:105540004D49091F096841F470414B4A121F11600F
:105550000BE049495031884207D14749091F096882
:1055600041F47021444A121F1160704710B50022A7
:10557000026847F6F0739A430C6A8B6823430C6900
:1055800023434C6923438C692343CC6923434C6AEE
:1055900023438C6A23431A430260CB6843600B6841
:1055A00083604B68C36010BD002101604160816071
:1055B000C160016141618161C161016241628162D9
:1055C000704721B1026842F00102026004E0026803
:1055D0004FF6FE731A40026070471AB103680B431E
:1055E000036002E003688B430360704741607047CB
:1055F0000146486880B2704701460020002201F051
:1056000080531BB11C4B083B1A6802E0194B083B46
:105610001A6802EA01030BB1012000E00020704784
:1056200000F0805119B11449091F086002E01149C6
:1056300008394860704701460020002201F080537D
:105640001BB10D4B083B1A6802E00A4B083B1A6875
:1056500002EA01030BB1012000E00020704700F0D6
:10566000805119B10449091F086002E00149083955
:1056700048607047080002400804024010B518F066
:105680003FFB10BD10B518F080FB10BD10B50446EF
:1056900020461AF047FB10BD10B50024A64800783C
:1056A00001287DD118F093FAA448006820F0020088
:1056B000801CA2490860A24801780078401CA04ADA
:1056C0001070052904DB002011460870FFF74FFC1D
:1056D0009C480068401C9B4908609B480178007802
:1056E000401C994A107064293BDB00201146087069
:1056F0009248006820F00400001D9049086093481B
:1057000001780078401C914A10703C2929DB002068
:10571000114608708948006820F008000830874961
:1057200008608B4801780078401C894A10703C2939
:1057300017DB0020114608708048006820F0100038
:1057400010307E49086083480078182809DB002063
:10575000804908707948006820F02000203077499F
:1057600008607D490888411C7B4A118032280ADB89
:105770000020114608807148006820F4806000F520
:1057800080606E49086075490888411C734A118021
:10579000B0F57A7F0CDB002011460880674800E0F6
:1057A00056E0006820F4006000F50060634908607E
:1057B0006B48B0F8020100280DDD6948B0F802011D
:1057C000401E6749A1F802010846B0F8020110B96D
:1057D000012081F804016348B0F8020100280DDDC2
:1057E0006048B0F80201401E5E49A1F80201084677
:1057F000B0F8020110B9012081F804015A48B0F84C
:10580000020100280DDD5848B0F80201401E56493B
:10581000A1F802010846B0F8020110B9012081F890
:1058200004015248B0F8020100280DDD4F48B0F8DD
:105830000201401E4D49A1F802010846B0F80201DC
:1058400010B9012081F8040118F0FFFA18F0DAF914
:1058500010BD10B56FF00400FDF7BDFB44480068B3
:105860004449B0FBF1F0444908704148006841499F
:10587000B0FBF1F441F28830444305203F490880F1
:105880004FF0E020006940F002004FF0E021086195
:1058900008464461006940F00100086110BD2DE92F
:1058A000F047074600264FF0E020D0F81490324829
:1058B000007807FB00F800BFFFF7E0FE4FF0E020A4
:1058C000856911E04FF0E0208469AC420CD0AC4215
:1058D00002D2281B064403E0A9EB04002844064436
:1058E0002546464500D300E0ECE700BFFFF7CAFEBF
:1058F000BDE8F08770B504460F480078A0B1204895
:10590000007888B91D480088844206DB1B4800885F
:1059100094FBF0F52846FFF7B9FE1848008894FB81
:10592000F0F100FB114084B24FF47A7104FB01F0F6
:10593000FFF7B5FF70BD00000E0900200800002031
:105940009A000020240000209600002097000020EC
:105950009800002099000020000000200200002094
:105960003A10002040110020461200204C13002065
:105970006400002000127A009200002094000020B1
:105980000109002030BF704772B6704762B6704799
:1059900010B504461B4800884FF6C77108401949E6
:1059A0000880084600882043088001211548FDF73B
:1059B000CEFD10BD70B50546002405E0601CC4B2E4
:1059C000C82C01DD002070BD02210E48FDF743FE0A
:1059D0000028F3D029460B48FDF7EAFD002405E036
:1059E000601CC4B2C82C01DD0020ECE70121054891
:1059F000FDF731FE0028F3D00248FDF7DBFDC0B211
:105A0000E1E700000038004070B505460C4600266E
:105A10000020FE49086004F01F0040EA05063046F9
:105A2000FFF7C8FFFF20FFF7C5FF064604F0800020
:105A300018B1FF20FFF7BEFF06460120F3490860BA
:105A4000304670BD2DE9F04104460D46164600274C
:105A50000020EE49086005F01F0040EA04073846C0
:105A6000FFF7A8FF3046FFF7A5FF0120E849C1F87E
:105A7000B001BDE8F08170B505460C460020E34951
:105A800008603A20FFF796FF05E06D1E0020FFF743
:105A900091FF2070641C002DF7D1002020700120A0
:105AA000DA49086070BD70B504460D460020D7493C
:105AB00008607A20FFF77EFF04E0641E2878FFF775
:105AC00079FF6D1C002CF8D10120D049086070BD11
:105AD00010B5044604F06000CE49097888420ED023
